:100000000C9492000C94BA000C94BA000C94BA00B0
:100010000C94BA000C94BA000C94BA000C94BA0078
:100020000C94BA000C94BA000C94D4030C944604BB
:100030000C94BA000C94BA000C94BA000C94BA0058
:100040000C94BA000C94BA000C94BA000C94BA0048
:100050000C94BA000C94BA000C94BA000C948A0365
:100060000C94BA000C94BA000C94BA000C94BA0028
:100070000C94BA000C94BA000C94BA000C94BA0018
:100080000C94BA000C94BA000C94BA000C94BA0008
:100090000C94BA000C94BA000C94BA000C94BA00F8
:1000A0000C94BA000C94BA000C94BA00080B00022D
:1000B0000202010009040000010202000005240000
:1000C0001001052401010104240206052406000193
:1000D0000705810310004009040100020A00000026
:1000E00007050202400000070583024000000403E8
:1000F000090412010002EF02014041233680000191
:100100000102030141726475696E6F204C4C43001B
:1001100041726475696E6F204C656F6E6172646FB9
:1001200000005C0711241FBECFEFDAE0DEBFCDBFB9
:1001300011E0A0E0B1E0E0E4FFE002C005900D9224
:10014000A832B107D9F721E0A8E2B1E001C01D92C1
:10015000A739B207E1F710E0C2E9D0E004C0219767
:10016000FE010E949307C139D107C9F70E947606A4
:100170000C949E070C940000FC01809146018111B3
:1001800003C08FEF9FEF08959FB7F89482E08093AC
:10019000E9002091F20030E01216130614F421E079
:1001A00030E02115310559F0289884E68093450107
:1001B0008091F10080838091F200882319F09FBF25
:1001C000C90108958BE68093E800F9CF2FB7F89422
:1001D00083E08093E9009091E800892F807295FF79
:1001E00004C09091F20080E4891B2FBF0895809194
:1001F0003D0181110DC082E08093390184E080933C
:100200003A0110923C0110923B0181E080933D0144
:1002100089E391E008953FB7F8948091350190917A
:100220003601A0913701B091380126B5A89B05C0D1
:100230002F3F19F00196A11DB11D3FBFBA2FA92F65
:10024000982F8827820F911DA11DB11DBC01CD01E2
:1002500042E0660F771F881F991F4A95D1F70895CE
:100260008F929F92AF92BF92CF92DF92EF92FF92C6
:100270006B017C010E940B014B015C01C114D10494
:10028000E104F104F1F00E940B01DC01CB018819BB
:100290009909AA09BB09883E9340A105B10570F3ED
:1002A00021E0C21AD108E108F10888EE880E83E047
:1002B000981EA11CB11CC114D104E104F10419F76A
:1002C000DDCFFF90EF90DF90CF90BF90AF909F90E9
:1002D0008F90089540912A0150912B01209128017F
:1002E0003091290142175307B4F49091E8009570BA
:1002F000E1F39091E80092FD19C08093F1008091A4
:100300002A0190912B0101968F739927892B19F45B
:100310008EEF8093E80080912A0190912B01019645
:1003200090932B0180932A0181E0089580E0089545
:10033000CF92DF92EF92FF920F931F93CF93DF93B1
:100340001F92CDB7DEB7182F062FE42E862F880F09
:100350008E5F99830E946A0183E00E946A01F12EF8
:10036000C12E9981D92E8C2D8F19801798F4F60102
:10037000E7FE02C0849101C080810E946A01182FAB
:1003800080E00E946A018123FFEFCF1ADF0A81110A
:10039000EACF01C081E00F90DF91CF911F910F91C3
:1003A000FF90EF90DF90CF900895DF92EF92FF9251
:1003B0000F931F93CF93DF93D82E8A017B01E40E16
:1003C000F51EEB01CE15DF0571F0D7FE03C0FE016F
:1003D000849101C088810E946A0121968111F2CF27
:1003E0008FEF9FEF01C0C801DF91CF911F910F9157
:1003F000FF90EF90DF9008950F931F93CF93DF93BB
:100400001F92CDB7DEB782E0898342E450E06CEA08
:1004100070E080E80E94D5010E94F700DC0112968E
:100420000D911C9113970115110569F0D801ED91FB
:10043000FC910280F381E02DBE016F5F7F4FC80108
:10044000099597FF07C089810F90DF91CF911F9188
:100450000F910895F80100851185E5CF615030F0C6
:100460002091F100FC0120830196F8CF289884E6C2
:10047000809345010895CF92DF92EF92FF920F9300
:100480001F93CF93DF936C017A018B01C0E0D0E022
:10049000CE15DF0589F0D8016D918D01D601ED9162
:1004A000FC910190F081E02DC6010995892B11F492
:1004B0007E0102C02196ECCFC701DF91CF911F9141
:1004C0000F91FF90EF90DF90CF9008958F929F92C1
:1004D000AF92BF92CF92DF92EF92FF920F931F9352
:1004E000CF93DF935C016B017A0180910B0188232C
:1004F00009F45BC080914601882309F456C08091BD
:100500002E0180FF05C08091E00082608093E000B2
:10051000E70110E00AEF83E0882E9AE3992E2097F6
:10052000D9F10E94E60081110AC0015009F43DC0D2
:1005300061E070E080E090E00E943001F0CF282F71
:1005400030E0C217D3070CF48C2F4FB7F894809289
:10055000E9009091E80095FF1DC0282F30E0C21BF4
:10056000D30BF601982F915020F081918093F100E8
:10057000FACFC20ED31E112319F09092E80009C0E1
:100580008091E80085FD06C09092E80011E0209778
:1005900009F010E04FBFC3CF1111C3CF5D9884E6BF
:1005A00080932F011E141F0444F081E090E0F501B8
:1005B0009383828380E090E001C0C701DF91CF91F7
:1005C0001F910F91FF90EF90DF90CF90BF90AF9071
:1005D0009F908F900895CF93DF931F92CDB7DEB792
:1005E0006983DC01ED91FC910280F381E02D41E013
:1005F00050E0BE016F5F7F4F09950F90DF91CF9163
:10060000089583E08093E9008091F200882319F037
:100610008AE38093E80008950E94E60090E0089540
:10062000CF93DF931F92CDB7DEB7FC01848595850C
:1006300097FD05C02FEF3FEF358724870BC0CE0114
:1006400001960E94BC00019719F4898190E002C0D4
:100650008FEF9FEF0F90DF91CF9108950F931F932E
:10066000CF93DF931F92CDB7DEB78C01FC01848559
:10067000958597FF0EC0CE0101960E94BC000197A0
:1006800019F4298130E002C02FEF3FEFF8013587E0
:100690002487F801848595850F90DF91CF911F9174
:1006A0000F910895FC018485958597FD0BC09FB738
:1006B000F89482E08093E9008091F2009FBF90E07F
:1006C000019608959FB7F89482E08093E9008091A5
:1006D000F2009FBF90E00895089580E090E00895B3
:1006E000BC01009791F0FC0101900020E9F73197DF
:1006F000AF01481B590BE0914701F091480102807E
:10070000F381E02D87E491E0099480E090E0089582
:100710000E9499071F920F920FB60F9211242F93E8
:100720003F938F939F93AF93BF93809131019091AB
:100730003201A0913301B09134013091300123E0B6
:10074000230F2D3720F40196A11DB11D05C026E809
:10075000230F0296A11DB11D20933001809331011A
:1007600090933201A0933301B0933401809135010D
:1007700090913601A0913701B09138010196A11DE9
:10078000B11D8093350190933601A0933701B0934A
:100790003801BF91AF919F918F913F912F910F9011
:1007A0000FBE0F901F9018951F920F920FB60F92C9
:1007B00011248F939F938091E1009091E100937FAA
:1007C0009093E10083FF0FC01092E90091E09093B5
:1007D000EB001092EC0092E39093ED001092460132
:1007E00098E09093F00082FF20C093E09093E9009E
:1007F0009091F200992319F09AE39093E800909178
:100800002F01992339F090912F01915090932F014E
:10081000992389F190914501992339F090914501EF
:10082000915090934501992341F184FF10C080912C
:10083000E2008E7E81608093E2008091E1008F7EF5
:100840008093E10080912E018E7E806111C080FF37
:1008500016C08091E2008E7E80618093E2008091DC
:10086000E1008E7E8093E10080912E018E7E81607A
:1008700080932E0104C05D9ACDCF289AD6CF9F9148
:100880008F910F900FBE0F901F9018951F920F928F
:100890000FB60F921124CF92DF92EF92FF920F9337
:1008A0001F932F933F934F935F936F937F938F93F8
:1008B0009F93AF93BF93EF93FF93CF93DF93CDB706
:1008C000DEB76C97DEBFCDBF1092E9008091E800E3
:1008D00083FFEDC168E0CE0145960E942E0282EFB3
:1008E0008093E8008D8987FF05C09091E80090FF14
:1008F000FCCF03C09EEF9093E800982F907609F00C
:10090000C6C09E892F89188D91110CC0803829F49A
:1009100080912D018093F10002C01092F10010929D
:10092000F10048C1422F50E0512B913051F4811118
:1009300041C14130510509F03DC180912D018D7FAC
:100940000BC0933061F4811135C14130510509F07C
:1009500031C180912D01826080932D012BC1953092
:1009600041F48091E80080FFFCCF20682093E300F1
:1009700021C1963009F05FC0EB8CFC8C1092E9002D
:1009800010922B0110922A01123091F51092290138
:10099000109228010E94FC0199E0BE016F5F7F4F19
:1009A000DB01E92F1D92EA95E9F799831A8391E01B
:1009B0009E8390EA98879AEF998720912A01309137
:1009C0002B01275F3F4F3C832B838D831092E900DF
:1009D00010922B0110922A01F0922901E092280135
:1009E00049E050E080E00E94D5010E94FC01E2C095
:1009F000F0922901E09228010E94F700DC01129692
:100A0000ED90FC901397E114F10409F4C0C0D701F4
:100A1000ED91FC910480F581E02DBE016B5E7F4F6E
:100A2000C7010995009719F00CF0C4C0C7C0F701C1
:100A3000E084F184E8CF973009F4C0C0983021F405
:100A400081E08093F100B6C0993009F0B3C08370A3
:100A500009F0B4C0EFE1F1E081E021E036E39081FC
:100A6000992361F08093E9002093EB00919190939A
:100A7000EC003093ED008F5F873089F78EE780932D
:100A8000EA001092EA008F898093460193C08B8D13
:100A90009C8D1092E90010922B0110922A019093E4
:100AA000290180932801898D811156C08E899D89E5
:100AB000913A59F4813209F081C047E050E064E096
:100AC00071E080E00E94D50175C0913209F076C0D6
:100AD000833289F4888D90E0982F88272F89822B84
:100AE000A0E0B0E08093000190930101A093020187
:100AF000B09303015FC0803269F48091E80082FF07
:100B0000FCCF67E084E091E00E942E028BEF80939F
:100B1000E80006C0823209F04DC08F8980930B0136
:100B200080912C01882319F0EEEFFAE002C0E0E09A
:100B3000F8E08091040190910501A0910601B09127
:100B40000701803B9440A105B10509F07BC080916D
:100B50000B0180FF93C076C00E94F700DC01129663
:100B60000D911C9113970115110541F1D801ED91DB
:100B7000FC910190F081E02DBE016B5E7F4FC801BA
:100B80000995811117C0F80100851185ECCF11304E
:100B900009F44EC0133091F48F89882309F445C0BD
:100BA000823081F440E860E180E191E00E949801A8
:100BB000882321F08EEF8093E80079C081E2809352
:100BC000EB0075C0813029F440E86BE084E091E0EF
:100BD000EDCF833099F70E94F700DC011296ED907B
:100BE000FC9013978E010F5F1F4F6801E114F10411
:100BF00079F0D701ED91FC910680F781E02DB801E5
:100C0000C7010995080F111DF701E084F184EECFAB
:100C1000D8011C92F60101900020E9F73197BF013D
:100C20006C197D0940E0C601C1CF6EEE70E002C0D4
:100C300062EF70E06115710509F2FB01449150E02B
:100C400080E840CF0FB6F894A89580916000886145
:100C500080936000109260000FBEA895EE3F2AE0DE
:100C6000F20739F08091FE0A9091FF0A9183808308
:100C7000A1CF1092FF0A1092FE0A9CCFEE3F8AE0AD
:100C8000F80731F0808191819093FF0A8093FE0AEA
:100C900087E797E7918380839BE088E10FB6F8941C
:100CA000A895809360000FBE9093600083CF6C96F0
:100CB0000FB6F894DEBF0FBECDBFDF91CF91FF918D
:100CC000EF91BF91AF919F918F917F916F915F91C4
:100CD0004F913F912F911F910F91FF90EF90DF90D7
:100CE000CF900F900FBE0F901F901895CF93DF936A
:100CF000CDB7DEB7A1970FB6F894DEBF0FBECDBF5C
:100D0000789484B5826084BD84B5816084BD85B5E6
:100D1000826085BD85B5816085BD80916E008160F2
:100D200080936E0010928100809181008260809398
:100D3000810080918100816080938100809180009A
:100D40008160809380008091910082608093910007
:100D500080919100816080939100809190008160EA
:100D6000809390008091C10084608093C100809145
:100D7000C10082608093C1008091C1008160809336
:100D8000C1008091C30081608093C3008091C00046
:100D900082608093C0008091C20081608093C20015
:100DA00080917A00846080937A0080917A008260DA
:100DB00080937A0080917A00816080937A0080919C
:100DC0007A00806880937A001092460110922D017B
:100DD00010922E018091D70081608093D70080EA25
:100DE0008093D80089B5806189BD89B5826089BD4D
:100DF00009B400FEFDCF61E070E080E090E00E9469
:100E000030018091D8008F7C80618093D8008091E0
:100E1000E000807F8093E0008091E1008E7E8093EF
:100E2000E1008DE08093E200559A209AEEEFFFE713
:100E3000859194918B3F9C4D19F481E080932C0116
:100E40008FEF9FEF90935401809353018AE0882E97
:100E5000912CA12CB12C7E018CE1E80EF11C90E0CC
:100E6000C92E90E0D92E19A28E010F5D1F4F2BE6DF
:100E700032E740E050E0CA01B901A50194010E94A7
:100E8000710790E3960FF80192938F01EE15FF051D
:100E900091F7C7010E94700385E291E00E94700300
:100EA00068EE73E080E090E00E943001C114D1044C
:100EB000D1F20E940000D7CFE7E4F1E01382128262
:100EC00088EE93E0A0E0B0E084839583A683B783A7
:100ED00080E191E0918380838FEF9FEF95878487F6
:100EE0000895A1E21A2EAA1BBB1BFD010DC0AA1F6B
:100EF000BB1FEE1FFF1FA217B307E407F50720F083
:100F0000A21BB30BE40BF50B661F771F881F991FFD
:100F10001A9469F760957095809590959B01AC0146
:100F2000BD01CF010895EE0FFF1F0590F491E02D54
:100F3000099481E090E0F8940C949E07F894FFCF18
:100F4000FFFFFFFF00E100000000000000000000C4
:100F5000EB0266020C030103520310032E0300C1CF
:080F600080810000000D0A0071
:00000001FF
